{
  "address": "0x879Aa0Ec8366439F0fa62fA3e14Df6ebF3C5fd5f",
  "abi": [
    {
      "inputs": [
        {
          "internalType": "uint256",
          "name": "_lockTime",
          "type": "uint256"
        },
        {
          "internalType": "address",
          "name": "dataFeedAddr",
          "type": "address"
        }
      ],
      "stateMutability": "nonpayable",
      "type": "constructor"
    },
    {
      "inputs": [
        {
          "internalType": "uint256",
          "name": "_amt",
          "type": "uint256"
        }
      ],
      "name": "converEthToUSD",
      "outputs": [
        {
          "internalType": "uint256",
          "name": "",
          "type": "uint256"
        }
      ],
      "stateMutability": "view",
      "type": "function"
    },
    {
      "inputs": [],
      "name": "fund",
      "outputs": [],
      "stateMutability": "payable",
      "type": "function"
    },
    {
      "inputs": [
        {
          "internalType": "address",
          "name": "",
          "type": "address"
        }
      ],
      "name": "fundAmtToAddr",
      "outputs": [
        {
          "internalType": "uint256",
          "name": "",
          "type": "uint256"
        }
      ],
      "stateMutability": "view",
      "type": "function"
    },
    {
      "inputs": [],
      "name": "fundFlag",
      "outputs": [
        {
          "internalType": "bool",
          "name": "",
          "type": "bool"
        }
      ],
      "stateMutability": "view",
      "type": "function"
    },
    {
      "inputs": [],
      "name": "getChainlinkDataFeedLatestAnswer",
      "outputs": [
        {
          "internalType": "int256",
          "name": "",
          "type": "int256"
        }
      ],
      "stateMutability": "view",
      "type": "function"
    },
    {
      "inputs": [],
      "name": "getFund",
      "outputs": [],
      "stateMutability": "nonpayable",
      "type": "function"
    },
    {
      "inputs": [],
      "name": "owner",
      "outputs": [
        {
          "internalType": "address",
          "name": "",
          "type": "address"
        }
      ],
      "stateMutability": "view",
      "type": "function"
    },
    {
      "inputs": [],
      "name": "refund",
      "outputs": [],
      "stateMutability": "nonpayable",
      "type": "function"
    },
    {
      "inputs": [
        {
          "internalType": "address",
          "name": "_funder",
          "type": "address"
        },
        {
          "internalType": "uint256",
          "name": "_amount",
          "type": "uint256"
        }
      ],
      "name": "setFundAmtToAddr",
      "outputs": [],
      "stateMutability": "nonpayable",
      "type": "function"
    },
    {
      "inputs": [
        {
          "internalType": "address",
          "name": "_tokenAddr",
          "type": "address"
        }
      ],
      "name": "setTokenAddr",
      "outputs": [],
      "stateMutability": "nonpayable",
      "type": "function"
    },
    {
      "inputs": [
        {
          "internalType": "address",
          "name": "newOwner",
          "type": "address"
        }
      ],
      "name": "transferOwnership",
      "outputs": [],
      "stateMutability": "nonpayable",
      "type": "function"
    }
  ],
  "transactionHash": "0xb70444b649325a9b69173e474dc1d371ac837cf725f7f85b62af1bc1274e6e9b",
  "args": [
    180,
    "0x694AA1769357215DE4FAC081bf1f309aDC325306"
  ],
  "numDeployments": 1,
  "solcInputHash": "77ee2b799c5fe7972faeb6199aaf7d13",
  "bytecode": "0x608060405234801561001057600080fd5b5060405161146038038061146083398181016040528101906100329190610162565b33600260006101000a81548173ffffffffffffffffffffffffffffffffffffffff021916908373ffffffffffffffffffffffffffffffffffffffff16021790555080600160006101000a81548173ffffffffffffffffffffffffffffffffffffffff021916908373ffffffffffffffffffffffffffffffffffffffff160217905550426003819055508160048190555050506101a2565b600080fd5b6000819050919050565b6100e1816100ce565b81146100ec57600080fd5b50565b6000815190506100fe816100d8565b92915050565b600073ffffffffffffffffffffffffffffffffffffffff82169050919050565b600061012f82610104565b9050919050565b61013f81610124565b811461014a57600080fd5b50565b60008151905061015c81610136565b92915050565b60008060408385031215610179576101786100c9565b5b6000610187858286016100ef565b92505060206101988582860161014d565b9150509250929050565b6112af806101b16000396000f3fe60806040526004361061009c5760003560e01c80637f5b35f0116100645780637f5b35f0146101845780638da5cb5b146101af5780638edd6eb6146101da578063b60d4288146101f1578063bea4dfb5146101fb578063f2fde38b146102265761009c565b806312ddda10146100a15780632ebd1e28146100de57806350c3c42f14610107578063590e1ae3146101445780637343be601461015b575b600080fd5b3480156100ad57600080fd5b506100c860048036038101906100c39190610b31565b61024f565b6040516100d59190610b77565b60405180910390f35b3480156100ea57600080fd5b5061010560048036038101906101009190610b31565b610267565b005b34801561011357600080fd5b5061012e60048036038101906101299190610bbe565b61033b565b60405161013b9190610b77565b60405180910390f35b34801561015057600080fd5b5061015961036b565b005b34801561016757600080fd5b50610182600480360381019061017d9190610beb565b61058b565b005b34801561019057600080fd5b5061019961062c565b6040516101a69190610c46565b60405180910390f35b3480156101bb57600080fd5b506101c461063f565b6040516101d19190610c70565b60405180910390f35b3480156101e657600080fd5b506101ef610665565b005b6101f9610866565b005b34801561020757600080fd5b50610210610959565b60405161021d9190610ca4565b60405180910390f35b34801561023257600080fd5b5061024d60048036038101906102489190610b31565b6109fa565b005b60006020528060005260406000206000915090505481565b600260009054906101000a900473ffffffffffffffffffffffffffffffffffffffff1673ffffffffffffffffffffffffffffffffffffffff163373ffffffffffffffffffffffffffffffffffffffff16146102f7576040517f08c379a00000000000000000000000000000000000000000000000000000000081526004016102ee90610d1c565b60405180910390fd5b80600560006101000a81548173ffffffffffffffffffffffffffffffffffffffff021916908373ffffffffffffffffffffffffffffffffffffffff16021790555050565b600080610346610959565b90506305f5e10081846103599190610d6b565b6103639190610ddc565b915050919050565b681b1ae4d6e2ef50000061037e4761033b565b106103be576040517f08c379a00000000000000000000000000000000000000000000000000000000081526004016103b590610e59565b60405180910390fd5b6004546003546103ce9190610e79565b421161040f576040517f08c379a000000000000000000000000000000000000000000000000000000000815260040161040690610ef9565b60405180910390fd5b60008060003373ffffffffffffffffffffffffffffffffffffffff1673ffffffffffffffffffffffffffffffffffffffff16815260200190815260200160002054905060008111610495576040517f08c379a000000000000000000000000000000000000000000000000000000000815260040161048c90610f65565b60405180910390fd5b60008060003373ffffffffffffffffffffffffffffffffffffffff1673ffffffffffffffffffffffffffffffffffffffff1681526020019081526020016000208190555060003373ffffffffffffffffffffffffffffffffffffffff16826040516104ff90610fb6565b60006040518083038185875af1925050503d806000811461053c576040519150601f19603f3d011682016040523d82523d6000602084013e610541565b606091505b50508091505080610587576040517f08c379a000000000000000000000000000000000000000000000000000000000815260040161057e90611017565b60405180910390fd5b5050565b600560009054906101000a900473ffffffffffffffffffffffffffffffffffffffff1673ffffffffffffffffffffffffffffffffffffffff163373ffffffffffffffffffffffffffffffffffffffff16146105e557600080fd5b806000808473ffffffffffffffffffffffffffffffffffffffff1673ffffffffffffffffffffffffffffffffffffffff168152602001908152602001600020819055505050565b600560149054906101000a900460ff1681565b600260009054906101000a900473ffffffffffffffffffffffffffffffffffffffff1681565b600260009054906101000a900473ffffffffffffffffffffffffffffffffffffffff1673ffffffffffffffffffffffffffffffffffffffff163373ffffffffffffffffffffffffffffffffffffffff16146106f5576040517f08c379a00000000000000000000000000000000000000000000000000000000081526004016106ec90610d1c565b60405180910390fd5b681b1ae4d6e2ef5000006107084761033b565b1015610749576040517f08c379a000000000000000000000000000000000000000000000000000000000815260040161074090611083565b60405180910390fd5b6004546003546107599190610e79565b421161079a576040517f08c379a000000000000000000000000000000000000000000000000000000000815260040161079190610ef9565b60405180910390fd5b60003373ffffffffffffffffffffffffffffffffffffffff16476040516107c090610fb6565b60006040518083038185875af1925050503d80600081146107fd576040519150601f19603f3d011682016040523d82523d6000602084013e610802565b606091505b50508091505080610848576040517f08c379a000000000000000000000000000000000000000000000000000000000815260040161083f90611017565b60405180910390fd5b6001600560146101000a81548160ff02191690831515021790555050565b670de0b6b3a76400003410156108b1576040517f08c379a00000000000000000000000000000000000000000000000000000000081526004016108a8906110ef565b60405180910390fd5b6004546003546108c19190610e79565b4210610902576040517f08c379a00000000000000000000000000000000000000000000000000000000081526004016108f99061115b565b60405180910390fd5b346000803373ffffffffffffffffffffffffffffffffffffffff1673ffffffffffffffffffffffffffffffffffffffff16815260200190815260200160002060008282546109509190610e79565b92505081905550565b600080600160009054906101000a900473ffffffffffffffffffffffffffffffffffffffff1673ffffffffffffffffffffffffffffffffffffffff1663feaf968c6040518163ffffffff1660e01b815260040160a060405180830381865afa1580156109c9573d6000803e3d6000fd5b505050506040513d601f19601f820116820180604052508101906109ed91906111fe565b5050509150508091505090565b600260009054906101000a900473ffffffffffffffffffffffffffffffffffffffff1673ffffffffffffffffffffffffffffffffffffffff163373ffffffffffffffffffffffffffffffffffffffff1614610a8a576040517f08c379a0000000000000000000000000000000000000000000000000000000008152600401610a8190610d1c565b60405180910390fd5b80600260006101000a81548173ffffffffffffffffffffffffffffffffffffffff021916908373ffffffffffffffffffffffffffffffffffffffff16021790555050565b600080fd5b600073ffffffffffffffffffffffffffffffffffffffff82169050919050565b6000610afe82610ad3565b9050919050565b610b0e81610af3565b8114610b1957600080fd5b50565b600081359050610b2b81610b05565b92915050565b600060208284031215610b4757610b46610ace565b5b6000610b5584828501610b1c565b91505092915050565b6000819050919050565b610b7181610b5e565b82525050565b6000602082019050610b8c6000830184610b68565b92915050565b610b9b81610b5e565b8114610ba657600080fd5b50565b600081359050610bb881610b92565b92915050565b600060208284031215610bd457610bd3610ace565b5b6000610be284828501610ba9565b91505092915050565b60008060408385031215610c0257610c01610ace565b5b6000610c1085828601610b1c565b9250506020610c2185828601610ba9565b9150509250929050565b60008115159050919050565b610c4081610c2b565b82525050565b6000602082019050610c5b6000830184610c37565b92915050565b610c6a81610af3565b82525050565b6000602082019050610c856000830184610c61565b92915050565b6000819050919050565b610c9e81610c8b565b82525050565b6000602082019050610cb96000830184610c95565b92915050565b600082825260208201905092915050565b7f596f7520617265206e6f74206f776e6572000000000000000000000000000000600082015250565b6000610d06601183610cbf565b9150610d1182610cd0565b602082019050919050565b60006020820190508181036000830152610d3581610cf9565b9050919050565b7f4e487b7100000000000000000000000000000000000000000000000000000000600052601160045260246000fd5b6000610d7682610b5e565b9150610d8183610b5e565b9250828202610d8f81610b5e565b91508282048414831517610da657610da5610d3c565b5b5092915050565b7f4e487b7100000000000000000000000000000000000000000000000000000000600052601260045260246000fd5b6000610de782610b5e565b9150610df283610b5e565b925082610e0257610e01610dad565b5b828204905092915050565b7f5461726765742069732072656163686564000000000000000000000000000000600082015250565b6000610e43601183610cbf565b9150610e4e82610e0d565b602082019050919050565b60006020820190508181036000830152610e7281610e36565b9050919050565b6000610e8482610b5e565b9150610e8f83610b5e565b9250828201905080821115610ea757610ea6610d3c565b5b92915050565b7f636f6e747261637420697320756e6c6f636b6564000000000000000000000000600082015250565b6000610ee3601483610cbf565b9150610eee82610ead565b602082019050919050565b60006020820190508181036000830152610f1281610ed6565b9050919050565b7f596f752068617665206e6f20616d6f756e740000000000000000000000000000600082015250565b6000610f4f601283610cbf565b9150610f5a82610f19565b602082019050919050565b60006020820190508181036000830152610f7e81610f42565b9050919050565b600081905092915050565b50565b6000610fa0600083610f85565b9150610fab82610f90565b600082019050919050565b6000610fc182610f93565b9150819050919050565b7f7478206661696c65640000000000000000000000000000000000000000000000600082015250565b6000611001600983610cbf565b915061100c82610fcb565b602082019050919050565b6000602082019050818103600083015261103081610ff4565b9050919050565b7f546172676574206973206e6f7420726561636865640000000000000000000000600082015250565b600061106d601583610cbf565b915061107882611037565b602082019050919050565b6000602082019050818103600083015261109c81611060565b9050919050565b7f4e6f7420656e6f7567682062616c616e63650000000000000000000000000000600082015250565b60006110d9601283610cbf565b91506110e4826110a3565b602082019050919050565b60006020820190508181036000830152611108816110cc565b9050919050565b7f636f6e7472616374206973206c6f636b65640000000000000000000000000000600082015250565b6000611145601283610cbf565b91506111508261110f565b602082019050919050565b6000602082019050818103600083015261117481611138565b9050919050565b600069ffffffffffffffffffff82169050919050565b61119a8161117b565b81146111a557600080fd5b50565b6000815190506111b781611191565b92915050565b6111c681610c8b565b81146111d157600080fd5b50565b6000815190506111e3816111bd565b92915050565b6000815190506111f881610b92565b92915050565b600080600080600060a0868803121561121a57611219610ace565b5b6000611228888289016111a8565b9550506020611239888289016111d4565b945050604061124a888289016111e9565b935050606061125b888289016111e9565b925050608061126c888289016111a8565b915050929550929590935056fea2646970667358221220be37122c5a25e1bffe8e4b0955588995b9a362a1901b493783e7d5972f837add64736f6c634300081c0033",
  "devdoc": {
    "kind": "dev",
    "methods": {},
    "version": 1
  },
  "userdoc": {
    "kind": "user",
    "methods": {},
    "version": 1
  },
  "storageLayout": {
    "storage": [
      {
        "astId": 839,
        "contract": "contracts/FundMe.sol:FundMe",
        "label": "fundAmtToAddr",
        "offset": 0,
        "slot": "0",
        "type": "t_mapping(t_address,t_uint256)"
      },
      {
        "astId": 856,
        "contract": "contracts/FundMe.sol:FundMe",
        "label": "dataFeed",
        "offset": 0,
        "slot": "1",
        "type": "t_contract(AggregatorV3Interface)45"
      },
      {
        "astId": 858,
        "contract": "contracts/FundMe.sol:FundMe",
        "label": "owner",
        "offset": 0,
        "slot": "2",
        "type": "t_address"
      },
      {
        "astId": 860,
        "contract": "contracts/FundMe.sol:FundMe",
        "label": "deployTimestamp",
        "offset": 0,
        "slot": "3",
        "type": "t_uint256"
      },
      {
        "astId": 862,
        "contract": "contracts/FundMe.sol:FundMe",
        "label": "lockTime",
        "offset": 0,
        "slot": "4",
        "type": "t_uint256"
      },
      {
        "astId": 864,
        "contract": "contracts/FundMe.sol:FundMe",
        "label": "tokenAddr",
        "offset": 0,
        "slot": "5",
        "type": "t_address"
      },
      {
        "astId": 866,
        "contract": "contracts/FundMe.sol:FundMe",
        "label": "fundFlag",
        "offset": 20,
        "slot": "5",
        "type": "t_bool"
      }
    ],
    "types": {
      "t_address": {
        "encoding": "inplace",
        "label": "address",
        "numberOfBytes": "20"
      },
      "t_bool": {
        "encoding": "inplace",
        "label": "bool",
        "numberOfBytes": "1"
      },
      "t_contract(AggregatorV3Interface)45": {
        "encoding": "inplace",
        "label": "contract AggregatorV3Interface",
        "numberOfBytes": "20"
      },
      "t_mapping(t_address,t_uint256)": {
        "encoding": "mapping",
        "key": "t_address",
        "label": "mapping(address => uint256)",
        "numberOfBytes": "32",
        "value": "t_uint256"
      },
      "t_uint256": {
        "encoding": "inplace",
        "label": "uint256",
        "numberOfBytes": "32"
      }
    }
  }
}